:100000000C942A000C94840B0C94B70B0C94EA0B00
:100010000C9447000C9447000C94DA080C943909AE
:100020000C9447000C9496090C9492080C94460882
:100030000C9447000C9447000C9447000C94470024
:100040000C94E2120C9447000C9447000C94470067
:100050000C94470011241FBECFE5D8E0DEBFCDBF12
:1000600010E0A0E6B0E0E0E1F7E402C005900D92F8
:10007000A038B107D9F710E0A0E8B0E001C01D92A8
:10008000A23AB107E1F70E94ED210C9486230C946B
:100090000000EF92FF920F931F937B018C0120E0F1
:1000A00030E040E05FE40E94490388238CF0C801FF
:1000B000B70120E030E040E05FE40E94C1010E940F
:1000C000A9039B01AC01205030404040504806C07D
:1000D000C801B7010E94A9039B01AC01B901CA0183
:1000E0001F910F91FF90EF900895A0E0B0E0EBE733
:1000F000F0E00C944F23DC012B01FA019C9192302B
:1001000008F439C1EB018881823008F433C194309E
:1001100069F4843009F02FC111969C91119789815F
:10012000981709F428C1A0E6B0E025C1843009F48D
:1001300021C18230A9F4923009F01DC19A01AD01AC
:1001400088E0EA010990AE01E90109929E0181501F
:10015000C1F7E201898111969C918923818308C1AD
:10016000923009F407C112962D903C901397EB0141
:100170008A819B811496AD90BD90CD90DC901797AD
:10018000EC80FD800E811F819101281B390BB90184
:1001900037FF04C066277727621B730B6032710537
:1001A0000CF061C0121613066CF537014801062EDB
:1001B00004C096948794779467940A94D2F721E0C8
:1001C00030E040E050E004C0220F331F441F551FB1
:1001D0006A95D2F721503040404050402E213F21B7
:1001E00040235123211531054105510521F021E01E
:1001F00030E040E050E079018A01E628F72808293C
:1002000019293CC0232BD1F1260E371E350146019A
:10021000062E04C096948794779467940A94D2F734
:1002200021E030E040E050E004C0220F331F441FC3
:10023000551F6A95D2F721503040404050402A2146
:100240003B214C215D21211531054105510521F04E
:1002500021E030E040E050E059016A01A628B728CB
:10026000C828D9280BC0821593052CF01C01AA249C
:10027000BB24650103C0EE24FF24870111969C91E5
:10028000D20111968C91981709F445C0992339F041
:10029000A80197012A193B094C095D0906C0A6016E
:1002A00095012E193F09400B510B57FD08C01182D3
:1002B0003382228224833583468357831DC081E0A5
:1002C00081833382228288279927DC01821B930B4A
:1002D000A40BB50B84839583A683B7830DC0220F2F
:1002E000331F441F551F24833583468357838281E0
:1002F000938101979383828324813581468157813D
:10030000DA01C9010197A109B1098F5F9F4FAF4F72
:10031000BF4328F30BC0918333822282EA0CFB1C7B
:100320000C1D1D1DE482F5820683178383E0808304
:10033000248135814681578157FF1AC0C901AA27F8
:1003400097FDA095BA2F81709070A070B0705695EF
:10035000479537952795822B932BA42BB52B848318
:100360009583A683B7838281938101969383828349
:10037000DF0101C0D201CD01CDB7DEB7E2E10C94BF
:100380006B23A0E2B0E0E7ECF1E00C945B2369831F
:100390007A838B839C832D833E834F835887E9E048
:1003A000EE2EF12CEC0EFD1ECE010196B7010E943F
:1003B000D2048E010F5E1F4FCE010596B8010E9438
:1003C000D2048A8991E089278A8BC701B801AE01DE
:1003D000475E5F4F0E9475000E94FD03A096E6E015
:1003E0000C947723A0E2B0E0E8EFF1E00C945B23FB
:1003F00069837A838B839C832D833E834F835887C5
:10040000F9E0EF2EF12CEC0EFD1ECE010196B701A6
:100410000E94D2048E010F5E1F4FCE010596B801D7
:100420000E94D204C701B801AE01475E5F4F0E942F
:1004300075000E94FD03A096E6E00C947723A0E2ED
:10044000B0E0E5E2F2E00C944F2369837A838B837A
:100450009C832D833E834F835887CE010196BE0136
:10046000675F7F4F0E94D204CE010596BE016F5E8A
:100470007F4F0E94D2049985923088F0898982301A
:10048000C8F0943019F4823051F404C0843029F457
:10049000923081F480E690E0C6C0923049F420E0CA
:1004A0009A858A89981321E02A87CE010996BBC0D4
:1004B000823049F420E09A858A89981321E02A8BBA
:1004C000CE014196B0C02D843E844F8458886D88FB
:1004D0007E888F88988CEE24FF248701AA24BB2471
:1004E000650140E050E060E070E0E0E0F0E0C10174
:1004F00081709070892BE9F0E60CF71C081D191D1E
:100500009A01AB012A0D3B1D4C1D5D1D80E090E062
:10051000A0E0B0E0E614F7040805190520F481E036
:1005200090E0A0E0B0E0BA01A901480F591F6A1F8E
:100530007B1FAA0CBB1CCC1CDD1C97FE08C081E0F5
:1005400090E0A0E0B0E0A82AB92ACA2ADB2A3196B6
:10055000E032F10549F0660C771C881C991C569412
:10056000479437942794C3CFFA85EA892B893C892D
:100570008B859C85280F391F2E5F3F4F17C0CA01FE
:1005800081709070892B61F016950795F794E79428
:1005900080E090E0A0E0B0E8E82AF92A0A2B1B2BC3
:1005A00076956795579547952F5F3F4F77FDE7CF36
:1005B0000CC0440F551F661F771F17FD4160EE0CDE
:1005C000FF1C001F111F21503040403090E05907A0
:1005D00090E0690790E4790760F32B8F3C8FDB0193
:1005E000CA018F779070A070B07080349105A1051A
:1005F000B10561F447FD0AC0E114F10401051105DC
:1006000029F0405C5F4F6F4F7F4F40781A8EFE1786
:1006100011F081E08A8F4D8F5E8F6F8F78A383E01A
:10062000898FCE0149960E94FD03A096E2E10C94C9
:100630006B23A8E1B0E0EFE1F3E00C945B23698366
:100640007A838B839C832D833E834F83588789E0F5
:10065000E82EF12CEC0EFD1ECE010196B7010E9492
:10066000D2048E010F5E1F4FCE010596B8010E9485
:10067000D2048985823040F08989823028F0C70110
:10068000B8010E944A0501C08FEF6896E6E00C941D
:100690007723A8E1B0E0EFE4F3E00C945B236983F7
:1006A0007A838B839C832D833E834F83588789E095
:1006B000E82EF12CEC0EFD1ECE010196B7010E9432
:1006C000D2048E010F5E1F4FCE010596B8010E9425
:1006D000D2048985823040F08989823028F0C701B0
:1006E000B8010E944A0501C08FEF6896E6E00C94BD
:1006F0007723A8E1B0E0EFE7F3E00C945B23698394
:100700007A838B839C832D833E834F83588789E034
:10071000E82EF12CEC0EFD1ECE010196B7010E94D1
:10072000D2048E010F5E1F4FCE010596B8010E94C4
:10073000D2048985823040F08989823028F0C7014F
:10074000B8010E944A0501C081E06896E6E00C9479
:100750007723ACE0B0E0EFEAF3E00C945F23698329
:100760007A838B839C83CE010196BE016B5F7F4FA2
:100770000E94D2048D81823061F1823050F1843048
:1007800021F48E81882351F12EC02F81388537FDC9
:1007900020C06E812F3131051CF06623F9F023C093
:1007A0008EE190E0821B930B29853A854B855C8511
:1007B00004C056954795379527958A95D2F76623B5
:1007C000B1F050954095309521953F4F4F4F5F4F79
:1007D0000EC020E030E040E050E009C02FEF3FEFD6
:1007E0004FEF5FE704C020E030E040E050E8B9019F
:1007F000CA012C96E2E00C947B23DF92EF92FF92E9
:100800000F931F93FC01E480F58006811781D1804E
:100810008081823048F480E090E0A0E1B0E0E82AF6
:10082000F92A0A2B1B2BA5C0843009F49FC0823003
:1008300021F4EE24FF24870105C0E114F104010531
:10084000110519F4E0E0F0E096C0628173819FEF3A
:10085000623879070CF05BC022E83FEF261B370BAC
:100860002A3131052CF020E030E040E050E02AC091
:10087000B801A701022E04C0769567955795479554
:100880000A94D2F781E090E0A0E0B0E004C0880FC5
:10089000991FAA1FBB1F2A95D2F70197A109B10979
:1008A0008E219F21A023B1230097A105B10521F03E
:1008B00081E090E0A0E0B0E09A01AB01282B392B59
:1008C0004A2B5B2BDA01C9018F779070A070B07052
:1008D00080349105A105B10539F427FF09C0205CDA
:1008E0003F4F4F4F5F4F04C0215C3F4F4F4F5F4F13
:1008F000E0E0F0E02030A0E03A07A0E04A07A0E402
:100900005A0710F0E1E0F0E079018A0127C0603871
:10091000710564F5FB01E158FF4FD801C7018F77DE
:100920009070A070B07080349105A105B10539F4C4
:10093000E7FE0DC080E490E0A0E0B0E004C08FE3EB
:1009400090E0A0E0B0E0E80EF91E0A1F1B1F17FFA1
:1009500005C016950795F794E794319687E01695AC
:100960000795F794E7948A95D1F705C0EE24FF2404
:100970008701EFEFF0E06E2F679566276795902F60
:100980009F77D794DD24D7948E2F8695492F462BB9
:10099000582F5D29B701CA011F910F91FF90EF9069
:1009A000DF900895FC01DB01408151812281622F9B
:1009B0006F7770E0221F2227221F9381892F880FD3
:1009C000822B282F30E0991F9927991F11969C930D
:1009D000119721153105A9F54115510561057105DD
:1009E00011F482E037C082E89FEF13969C938E93B8
:1009F00012979A01AB0167E0220F331F441F551F66
:100A00006A95D1F783E08C930DC0220F331F441FEA
:100A1000551F12968D919C911397019713969C9355
:100A20008E931297203080E0380780E0480780E4FA
:100A3000580758F314962D933D934D935C93179755
:100A400008952F3F310579F4411551056105710570
:100A500019F484E08C93089564FF03C081E08C93C3
:100A600012C01C9210C02F57304013963C932E9307
:100A7000129783E08C9387E0440F551F661F771F02
:100A80008A95D1F7706414964D935D936D937C9322
:100A9000179708951F93DC01FB019C91923008F495
:100AA00047C08081823008F443C0943051F41196DD
:100AB0001C91843099F58181682F70E0611B710968
:100AC0003FC0843021F0923031F48230B9F181811D
:100AD000882389F12DC011961C9111978230F1F075
:100AE00081811817D9F412962D913C911397828128
:100AF00093818217930794F028173907BCF0149656
:100B00008D919D910D90BC91A02D248135814681C0
:100B10005781281739074A075B0718F4112341F05A
:100B20000AC082179307A407B50740F4112319F0F0
:100B300061E070E005C06FEF7FEF02C060E070E041
:100B4000CB011F910895DF93CF93CDB7DEB7E1E4DA
:100B5000F0E08FE08083CF91DF910895DF93CF9312
:100B6000CDB7DEB7A1E4B0E0E1E4F0E080818861D8
:100B70008C93E1E4F0E01082CF91DF910895DF9350
:100B8000CF93CDB7DEB7A3E5B0E0E3E5F0E0808139
:100B900080648C93A3E5B0E0E3E5F0E080818860B9
:100BA0008C93A3E5B0E0E3E5F0E0808180628C9374
:100BB000A3E5B0E0E3E5F0E080818F7E8C93A3E5D0
:100BC000B0E0E3E5F0E080818B7F8C93A3E5B0E0BB
:100BD000E3E5F0E0808182608C93A3E5B0E0E3E59B
:100BE000F0E080818E7F8C93CF91DF910895DF9329
:100BF000CF93CDB7DEB7AFE4B0E0EFE4F0E08081B3
:100C00008D7F8C93AFE4B0E0EFE4F0E080818E7FE5
:100C10008C93AEE4B0E0EEE4F0E080818F7E8C93C4
:100C2000AEE4B0E0EEE4F0E0808188608C93A9E56A
:100C3000B0E0E9E5F0E0808180618C93AFE4B0E062
:100C4000EFE4F0E080818F778C93AFE4B0E0EFE4E5
:100C5000F0E080818F7B8C93AFE4B0E0EFE4F0E0D4
:100C600080818F7D8C93AFE4B0E0EFE4F0E0808191
:100C70008F7E8C93AEE4B0E0EEE4F0E080818B7F79
:100C80008C93AEE4B0E0EEE4F0E0808182608C937F
:100C9000AEE4B0E0EEE4F0E080818E7F8C93CF9103
:100CA000DF910895DF93CF930F92CDB7DEB789839D
:100CB000ECE5F0E0898180830F90CF91DF9108957A
:100CC000DF93CF9300D00F92CDB7DEB79B838A839B
:100CD00081E089838A819B81009739F08A819B8199
:100CE000909381008093800001C0198289810F90C8
:100CF0000F900F90CF91DF910895DF93CF9300D0A5
:100D00000F92CDB7DEB79B838A8381E089838A8186
:100D10009B81009739F08A819B8190938300809317
:100D2000820001C0198289810F900F900F90CF919E
:100D3000DF910895DF93CF9300D00F92CDB7DEB748
:100D40009B838A8319828A819B81009759F0E2E50F
:100D5000F0E08081882F90E0EA81FB81918380839D
:100D600081E0898389810F900F900F90CF91DF915F
:100D70000895DF93CF9300D00F92CDB7DEB78B836A
:100D800081E08A8319828B818536C0F48B81882F1C
:100D900090E0A0E0B0E0BA2FA92F982F882724E692
:100DA00030E040E050E0BC01CD010E942D23DA018B
:100DB000C901898389810E94520601C01A828A81F1
:100DC0000F900F900F90CF91DF910895DF93CF9305
:100DD00000D00F92CDB7DEB79B838A8319828A81B8
:100DE0009B81009751F0ECE4F0E080819181EA81F1
:100DF000FB819183808381E0898389810F900F90AB
:100E00000F90CF91DF910895DF93CF9300D0CDB7AE
:100E1000DEB79A838983EAE4F0E089819A8191833D
:100E200080830F900F90CF91DF910895DF93CF9340
:100E300000D0CDB7DEB79A83898389819A81909358
:100E40008900809388000F900F90CF91DF910895D3
:100E5000DF93CF9300D00F92CDB7DEB78B8381E0C5
:100E60008A8319828B81853600F58B81882F90E0EB
:100E7000A0E0B0E02FEF3FEF40E050E0BC01CD013B
:100E80000E94FA22DC01CB0124E630E040E050E091
:100E9000BC01CD010E942D23DA01C901898389811A
:100EA000882F90E00E94040701C01A828A810F9067
:100EB0000F900F90CF91DF910895DF93CF9300D0E3
:100EC0000F92CDB7DEB79B838A8381E089838A81C5
:100ED0009B81009739F08A819B8190938500809354
:100EE000840001C0198289810F900F900F90CF91DB
:100EF000DF910895DF93CF9300D00F92CDB7DEB787
:100F00009B838A8381E089838A819B81009739F062
:100F10008A819B81909387008093860001C019820B
:100F200089810F900F900F90CF91DF910895DF93FB
:100F3000CF93CDB7DEB7AEE4B0E0EEE4F0E0808171
:100F400080648C93A9E5B0E0E9E5F0E080818062FF
:100F50008C93CF91DF910895DF93CF93CDB7DEB718
:100F6000A9E5B0E0E9E5F0E0808180628C93CF9163
:100F7000DF910895DF93CF9300D00F92CDB7DEB706
:100F80009B838A8319828A819B810097A9F0209193
:100F90009500309196008091970090919800820F73
:100FA000931FCC01A0E0B0E0EA81FB8180839183B4
:100FB000A283B38381E0898389810F900F900F9082
:100FC000CF91DF910895EF92FF920F931F93DF93DC
:100FD000CF9300D00F92CDB7DEB79B838A8319825F
:100FE0008A819B81009749F18091950090919600AC
:100FF000CC01A0E0B0E024E630E040E050E0BC01ED
:10100000CD010E94FA227B018C0120919500309144
:1010100096008091970090919800820F931F9C01F9
:1010200040E050E0C801B7010E942D23DA01C90158
:10103000EA81FB81808381E0898389810F900F9011
:101040000F90CF91DF911F910F91FF90EF90089536
:10105000DF93CF9300D00F92CDB7DEB79B838A8307
:1010600019828A819B81009751F08091950090911F
:101070009600EA81FB819183808381E08983898165
:101080000F900F900F90CF91DF9108951F920F92C4
:101090000FB60F9211242F933F934F935F936F934B
:1010A0007F938F939F93AF93BF93EF93FF93DF93C0
:1010B000CF93CDB7DEB780918A0090918B000196D7
:1010C00090938B0080938A0080918A0090918B008E
:1010D0002FE08334920799F4E2E5F0E080EC80831E
:1010E00010928B0010928A00809180009091810074
:1010F000009729F0E0918000F09181000995CF914F
:10110000DF91FF91EF91BF91AF919F918F917F916F
:101110006F915F914F913F912F910F900FBE0F9064
:101120001F9018951F920F920FB60F9211242F93B4
:101130003F934F935F936F937F938F939F93AF935F
:10114000BF93EF93FF93DF93CF93CDB7DEB780913B
:101150008C0090918D00019690938D0080938C006F
:1011600080918C0090918D0027E28031920779F474
:1011700010928D0010928C008091820090918300DB
:10118000009729F0E0918200F09183000995CF91BA
:10119000DF91FF91EF91BF91AF919F918F917F91DF
:1011A0006F915F914F913F912F910F900FBE0F90D4
:1011B0001F9018951F920F920FB60F9211242F9324
:1011C0003F938F939F93AF93BF93EF93FF93DF93DF
:1011D000CF9300D0CDB7DEB7E6E4F0E08081918117
:1011E0009A838983809190008823B9F420918E009E
:1011F00030918F0089819A81821B930B9093980084
:1012000080939700AEE4B0E0EEE4F0E080818F7B65
:101210008C9381E08093900015C020918E003091D6
:101220008F0089819A81821B930B90939600809303
:101230009500AEE4B0E0EEE4F0E0808180648C9351
:101240001092900089819A8190938F0080938E00F4
:101250000F900F90CF91DF91FF91EF91BF91AF91E0
:101260009F918F913F912F910F900FBE0F901F90E4
:1012700018951F920F920FB60F9211242F933F9340
:101280004F935F936F937F938F939F93AF93BF938E
:10129000EF93FF93DF93CF93CDB7DEB780919100AB
:1012A000909192000196909392008093910080918A
:1012B0008800909189000097D9F020919100309199
:1012C0009200809188009091890028173907D9F4FD
:1012D0001092920010929100809186009091870068
:1012E000009789F0E0918600F091870009950BC086
:1012F0008091860090918700009729F0E091860008
:10130000F09187000995CF91DF91FF91EF91BF9107
:10131000AF919F918F917F916F915F914F913F918D
:101320002F910F900FBE0F901F9018951F920F9244
:101330000FB60F9211242F933F934F935F936F93A8
:101340007F938F939F93AF93BF93EF93FF93DF931D
:10135000CF93CDB7DEB78091930090919400019622
:1013600090939400809393008091930090919400C7
:101370002FE083349207A9F4ECE4F0E080EC90E0F5
:101380009183808310929400109293008091840046
:1013900090918500009729F0E0918400F0918500FC
:1013A0000995CF91DF91FF91EF91BF91AF919F91FF
:1013B0008F917F916F915F914F913F912F910F90FE
:1013C0000FBE0F901F901895DF93CF93CDB7DEB768
:1013D000AFE5B0E0EFE5F0E0808180688C93CF91DD
:1013E000DF910895DF93CF93CDB7DEB7AFE5B0E0DF
:1013F000EFE5F0E080818F778C93CF91DF910895B6
:10140000DF93CF9300D000D0CDB7DEB79B838A8324
:101410006C8381E089838C81833088F48A819B810D
:10142000009769F08C81882F90E0880F991FFC014C
:10143000E756FF4F8A819B819183808301C0198287
:1014400089810F900F900F900F90CF91DF910895A9
:10145000DF93CF93CDB7DEB72B970FB6F894DEBFEF
:101460000FBECDBF8A836B8381E089838A81282F59
:1014700030E03B872A878A859B858130910509F476
:101480006FC02A853B852230310509F4CDC08A859D
:101490009B85009709F0F0C08B81282F30E03987B9
:1014A0002887888599858130910521F1288539859E
:1014B000223031052CF488859985009761F047C06A
:1014C000288539852230310599F1888599858330C1
:1014D0009105F9F03CC0A5E5B0E0E5E5F0E08081DC
:1014E00082608C93A5E5B0E0E5E5F0E080818E7F39
:1014F0008C932EC0A5E5B0E0E5E5F0E08081826048
:101500008C93A5E5B0E0E5E5F0E0808181608C9307
:101510001FC0A5E5B0E0E5E5F0E080818D7F8C930C
:10152000A5E5B0E0E5E5F0E080818E7F8C9310C00A
:10153000A5E5B0E0E5E5F0E0808181608C93A5E56C
:10154000B0E0E5E5F0E080818D7F8C9301C01982E9
:10155000ABE5B0E0EBE5F0E0808180648C938DC07A
:101560008B81282F30E03F832E838E819F818130B5
:10157000910521F12E813F81223031052CF48E819D
:101580009F81009761F047C02E813F812230310555
:1015900099F18E819F8183309105F9F03CC0A5E5DA
:1015A000B0E0E5E5F0E0808188608C93A5E5B0E0EF
:1015B000E5E5F0E080818B7F8C932EC0A5E5B0E05F
:1015C000E5E5F0E0808188608C93A5E5B0E0E5E595
:1015D000F0E0808184608C931FC0A5E5B0E0E5E574
:1015E000F0E080818B7F8C93A5E5B0E0E5E5F0E04D
:1015F0008081877F8C9310C0A5E5B0E0E5E5F0E041
:10160000808184608C93A5E5B0E0E5E5F0E0808121
:10161000877F8C9301C01982ABE5B0E0EBE5F0E089
:10162000808180688C9329C08B81282F30E03D8396
:101630002C838C819D81009731F02C813D8121305C
:10164000310549F010C0A4E5B0E0E4E5F0E08081A8
:101650008F7B8C9309C0A4E5B0E0E4E5F0E08081E5
:1016600080648C9301C01982ABE5B0E0EBE5F0E05B
:10167000808180628C9301C0198289812B960FB67C
:10168000F894DEBF0FBECDBFCF91DF910895DF93F9
:10169000CF9300D000D0CDB7DEB78A8381E08983B5
:1016A0008A81282F30E03C832B838B819C81813081
:1016B000910589F02B813C8122303105A1F08B818D
:1016C0009C810097C1F4ABE5B0E0EBE5F0E08081F0
:1016D0008F7B8C9311C0ABE5B0E0EBE5F0E080814F
:1016E0008F778C9309C0ABE5B0E0EBE5F0E080814B
:1016F0008F7D8C9301C0198289810F900F900F907C
:101700000F90CF91DF9108951F920F920FB60F9215
:1017100011242F933F934F935F936F937F938F93F6
:101720009F93AF93BF93EF93FF93DF93CF93CDB787
:10173000DEB78091990090919A00009729F0E0918E
:101740009900F0919A000995CF91DF91FF91EF9167
:10175000BF91AF919F918F917F916F915F914F91C9
:101760003F912F910F900FBE0F901F9018951F92D1
:101770000F920FB60F9211242F933F934F935F93C5
:101780006F937F938F939F93AF93BF93EF93FF9349
:10179000DF93CF93CDB7DEB780919B0090919C00F3
:1017A000009729F0E0919B00F0919C000995CF9162
:1017B000DF91FF91EF91BF91AF919F918F917F91B9
:1017C0006F915F914F913F912F910F900FBE0F90AE
:1017D0001F9018951F920F920FB60F9211242F93FE
:1017E0003F934F935F936F937F938F939F93AF93A9
:1017F000BF93EF93FF93DF93CF93CDB7DEB7809185
:101800009D0090919E00009729F0E0919D00F0913D
:101810009E000995CF91DF91FF91EF91BF91AF911C
:101820009F918F917F916F915F914F913F912F91F8
:101830000F900FBE0F901F901895DF93CF93CDB7E9
:10184000DEB7EAE3F0E01082E7E3F0E08FEF8083B9
:10185000E4E3F0E01082E1E3F0E01082EBE3F0E09B
:101860001082E8E3F0E01082E5E3F0E01082E2E3CA
:10187000F0E01082CF91DF910895DF93CF93CDB741
:10188000DEB72E970FB6F894DEBF0FBECDBF8A83AA
:101890006B834C8381E089838A81843008F00CC19A
:1018A0008B81883008F008C18C81882321F08C81DD
:1018B000813009F001C18A81282F30E03E872D87D1
:1018C0008D859E858130910509F44FC02D853E851B
:1018D000223031052CF48D859E85009771F0EDC086
:1018E0002D853E852230310509F477C08D859E8592
:1018F0008330910509F4A9C0E0C08C81282F30E025
:101900003C872B878B859C850097D1F02B853C8568
:101910002130310509F0D1C0AAE3B0E0EAE3F0E0FC
:101920008081482F8B81282F30E081E090E0022ECB
:1019300002C0880F991F0A94E2F7842B8C93BDC0D4
:10194000AAE3B0E0EAE3F0E08081482F8B81282F02
:1019500030E081E090E0022E02C0880F991F0A94C7
:10196000E2F7809584238C93A8C08C81282F30E0E7
:101970003A87298789859A850097D1F029853A8504
:101980002130310509F099C0A7E3B0E0E7E3F0E0CA
:101990008081482F8B81282F30E081E090E0022E5B
:1019A00002C0880F991F0A94E2F7842B8C9385C09C
:1019B000A7E3B0E0E7E3F0E08081482F8B81282F98
:1019C00030E081E090E0022E02C0880F991F0A9457
:1019D000E2F7809584238C9370C08C81282F30E0AF
:1019E00038872F838F8198850097D1F02F81388594
:1019F0002130310509F061C0A4E3B0E0E4E3F0E098
:101A00008081482F8B81282F30E081E090E0022EEA
:101A100002C0880F991F0A94E2F7842B8C934DC063
:101A2000A4E3B0E0E4E3F0E08081482F8B81282F2D
:101A300030E081E090E0022E02C0880F991F0A94E6
:101A4000E2F7809584238C9338C08C81282F30E076
:101A50003E832D838D819E810097C9F02D813E812B
:101A60002130310551F5A1E3B0E0E1E3F0E0808100
:101A7000482F8B81282F30E081E090E0022E02C0B9
:101A8000880F991F0A94E2F7842B8C9316C0A1E368
:101A9000B0E0E1E3F0E08081482F8B81282F30E037
:101AA00081E090E0022E02C0880F991F0A94E2F7AD
:101AB000809584238C9301C0198289812E960FB65C
:101AC000F894DEBF0FBECDBFCF91DF910895DF93B5
:101AD000CF93CDB7DEB72E970FB6F894DEBF0FBE0B
:101AE000CDBF8A836B834C8381E089838A81843074
:101AF00008F00CC18B81883008F008C18C818130DE
:101B000021F08C81882309F001C18A81282F30E0DF
:101B10003E872D878D859E858130910509F44FC0C4
:101B20002D853E85223031052CF48D859E850097CC
:101B300071F0EDC02D853E852230310509F477C066
:101B40008D859E858330910509F4A9C0E0C08C8104
:101B5000282F30E03C872B878B859C850097D1F020
:101B60002B853C852130310509F0D1C0ABE3B0E0D5
:101B7000EBE3F0E08081482F8B81282F30E081E07B
:101B800090E0022E02C0880F991F0A94E2F7842B7E
:101B90008C93BDC0ABE3B0E0EBE3F0E08081482F75
:101BA0008B81282F30E081E090E0022E02C0880F68
:101BB000991F0A94E2F7809584238C93A8C08C81A6
:101BC000282F30E03A87298789859A850097D1F0B8
:101BD00029853A852130310509F099C0A8E3B0E0A4
:101BE000E8E3F0E08081482F8B81282F30E081E00E
:101BF00090E0022E02C0880F991F0A94E2F7842B0E
:101C00008C9385C0A8E3B0E0E8E3F0E08081482F42
:101C10008B81282F30E081E090E0022E02C0880FF7
:101C2000991F0A94E2F7809584238C9370C08C816D
:101C3000282F30E038872F838F8198850097D1F047
:101C40002F8138852130310509F061C0A5E3B0E06E
:101C5000E5E3F0E08081482F8B81282F30E081E0A0
:101C600090E0022E02C0880F991F0A94E2F7842B9D
:101C70008C934DC0A5E3B0E0E5E3F0E08081482F10
:101C80008B81282F30E081E090E0022E02C0880F87
:101C9000991F0A94E2F7809584238C9338C08C8135
:101CA000282F30E03E832D838D819E810097C9F0DF
:101CB0002D813E812130310551F5A2E3B0E0E2E310
:101CC000F0E08081482F8B81282F30E081E090E088
:101CD000022E02C0880F991F0A94E2F7842B8C937E
:101CE00016C0A2E3B0E0E2E3F0E08081482F8B81F0
:101CF000282F30E081E090E0022E02C0880F991F6B
:101D00000A94E2F7809584238C9301C0198289811B
:101D10002E960FB6F894DEBF0FBECDBFCF91DF91E8
:101D20000895DF93CF93CDB7DEB727970FB6F8941A
:101D3000DEBF0FBECDBF8A836B835D834C8381E0A2
:101D400089838A81843008F0EAC08B81883008F06A
:101D5000E6C08C819D81009709F4E1C08A81282F1B
:101D600030E03F832E834E815F814130510509F47D
:101D700048C08E819F818230910534F42E813F814D
:101D80002115310571F0CCC04E815F814230510583
:101D900009F467C08E819F818330910509F490C05A
:101DA000BFC0E9E3F0E08081282F30E08B81882FED
:101DB00090E0A90102C0559547958A95E2F7CA01BE
:101DC00081709070009721F4EC81FD811082A8C091
:101DD000E9E3F0E08081282F30E08B81882F90E0CC
:101DE000A90102C0559547958A95E2F7CA0181700D
:101DF0009070882309F494C0EC81FD8181E0808398
:101E00008FC0E6E3F0E08081282F30E08B81882FBF
:101E100090E0A90102C0559547958A95E2F7CA015D
:101E200081709070009721F4EC81FD81108278C060
:101E3000E6E3F0E08081282F30E08B81882F90E06E
:101E4000A90102C0559547958A95E2F7CA018170AC
:101E50009070882309F464C0EC81FD8181E0808367
:101E60005FC0E3E3F0E08081282F30E08B81882F92
:101E700090E0A90102C0559547958A95E2F7CA01FD
:101E800081709070009721F4EC81FD81108248C030
:101E9000E3E3F0E08081282F30E08B81882F90E011
:101EA000A90102C0559547958A95E2F7CA0181704C
:101EB00090708823A9F1EC81FD8181E0808330C09E
:101EC000E0E3F0E08081282F30E08B81882F90E0E4
:101ED000A90102C0559547958A95E2F7CA0181701C
:101EE0009070009721F4EC81FD81108219C0E0E32D
:101EF000F0E08081282F30E08B81882F90E0A901CD
:101F000002C0559547958A95E2F7CA018170907095
:101F1000882331F0EC81FD8181E0808301C019824A
:101F2000898127960FB6F894DEBF0FBECDBFCF9143
:101F3000DF910895DF93CF93CDB7DEB72D970FB61E
:101F4000F894DEBF0FBECDBF8A836B8381E08983A7
:101F50008A81843008F087C08B81813021F08B81A9
:101F6000882309F080C08A81282F30E03D872C87A4
:101F70008C859D858130910571F12C853D852230C0
:101F800031052CF48C859D85009769F06DC02C85FA
:101F90003D8522303105B9F18C859D8583309105D1
:101FA00009F449C061C08B81282F30E03B872A8724
:101FB0008A859B85009731F02A853B852130310544
:101FC00029F052C0EAE3F0E010824EC0EAE3F0E00C
:101FD0008FEF808349C08B81282F30E03987288795
:101FE00088859985009731F028853985213031051C
:101FF00029F03AC0E7E3F0E0108236C0E7E3F0E012
:102000008FEF808331C08B81282F30E03F832E8378
:102010008E819F81009731F02E813F8121303105E3
:1020200029F022C0E4E3F0E010821EC0E4E3F0E017
:102030008FEF808319C08B81282F30E03D832C8364
:102040008C819D81009731F02C813D8121303105BB
:1020500029F00AC0E1E3F0E0108206C0E1E3F0E01D
:102060008FEF808301C0198289812D960FB6F89475
:10207000DEBF0FBECDBFCF91DF910895DF93CF9329
:1020800000D000D00F92CDB7DEB78A836B8381E09A
:1020900089838A81282F30E03D832C838C819D8128
:1020A00081309105D1F02C813D81223031052CF415
:1020B0008C819D81009761F01FC02C813D81223071
:1020C000310581F08C819D818330910581F014C0B0
:1020D000EBE3F0E08B81808310C0E8E3F0E08B81DC
:1020E00080830BC0E5E3F0E08B81808306C0E2E3F0
:1020F000F0E08B81808301C0198289810F900F905D
:102100000F900F900F90CF91DF910895DF93CF93B1
:1021100000D000D000D0CDB7DEB78A836B834C836C
:1021200081E089838B81853008F0C7C08A81282FA0
:1021300030E03E832D836D817E816130710509F42D
:1021400041C08D819E818230910534F42D813E8184
:102150002115310571F0B2C06D817E81623071054B
:1021600009F459C08D819E818330910509F47CC0AA
:10217000A5C0ABE3B0E0EBE3F0E08081482F8B81BA
:10218000282F30E08FE090E002C0880F991F2A9539
:10219000E2F7809584238C93ABE3B0E0EBE3F0E0CF
:1021A0008081482F8C81282F30E08B81882F90E010
:1021B000B90102C0660F771F8A95E2F7CB01842B25
:1021C0008C937CC0A8E3B0E0E8E3F0E08081482F86
:1021D0008B81282F30E08FE090E002C0880F991F9C
:1021E0002A95E2F7809584238C93A8E3B0E0E8E396
:1021F000F0E08081482F8C81282F30E08B81882F60
:1022000090E0B90102C0660F771F8A95E2F7CB0113
:10221000842B8C9353C0A5E3B0E0E5E3F0E080812C
:10222000482F8B81282F30E08FE090E002C0880F8C
:10223000991F2A95E2F7809584238C93A5E3B0E05B
:10224000E5E3F0E08081482F8C81282F30E08B81FE
:10225000882F90E0B90102C0660F771F8A95E2F7D8
:10226000CB01842B8C932AC0A2E3B0E0E2E3F0E040
:102270008081482F8B81282F30E08FE090E002C0D2
:10228000880F991F2A95E2F7809584238C93A2E307
:10229000B0E0E2E3F0E08081482F8C81282F30E02D
:1022A0008B81882F90E0B90102C0660F771F8A9555
:1022B000E2F7CB01842B8C9301C019828981269689
:1022C0000FB6F894DEBF0FBECDBFCF91DF9108955A
:1022D000DF93CF9300D000D000D0CDB7DEB78A8394
:1022E0007C836B8381E089838B819C810097E9F1FA
:1022F0008A81282F30E03E832D838D819E8181301D
:102300009105E1F02D813E81223031052CF48D8143
:102310009E81009761F027C02D813E8122303105DA
:10232000A1F08D819E8183309105B1F01CC0E9E35D
:10233000F0E08081EB81FC81808318C0E6E3F0E06F
:102340008081EB81FC81808311C0E3E3F0E0808138
:10235000EB81FC8180830AC0E0E3F0E08081EB81C7
:10236000FC81808303C0198201C01982898126966D
:102370000FB6F894DEBF0FBECDBFCF91DF910895A9
:10238000DF93CF93CDB7DEB7A7E2B0E0E7E2F0E0AE
:1023900080818F778C93A7E2B0E0E7E2F0E0808164
:1023A00080648C93A7E2B0E0E7E2F0E080818F7D6B
:1023B0008C93A6E2B0E0E6E2F0E080818F7D8C9322
:1023C000A6E2B0E0E6E2F0E0808184608C93A6E2D1
:1023D000B0E0E6E2F0E0808182608C93A6E2B0E0BB
:1023E000E6E2F0E080818E7F8C93A6E2B0E0E6E248
:1023F000F0E0808180688C93CF91DF910895DF9326
:10240000CF93CDB7DEB728970FB6F894DEBF0FBED7
:10241000CDBF8E8378876F8381E08D8319821A8286
:102420001B821C828E81803208F05CC08F8198856F
:10243000009709F457C0A7E2B0E0E7E2F0E080813E
:10244000807E8C93A7E2B0E0E7E2F0E090818E819D
:10245000892B8C93A6E2B0E0E6E2F0E08081806414
:102460008C930BC089819A81AB81BC810196A11D9F
:10247000B11D89839A83AB83BC83E6E2F0E080815F
:1024800082958F70882F90E081709070009761F432
:1024900089819A81AB81BC81803A26E8920721E04C
:1024A000A20720E0B207F0F289819A81AB81BC815A
:1024B000803A26E8920721E0A20720E0B20710F058
:1024C0001D8211C0E4E2F0E080819181EF81F88506
:1024D00091838083A6E2B0E0E6E2F0E08081806153
:1024E0008C9301C01D828D8128960FB6F894DEBFB3
:1024F0000FBECDBFCF91DF910895DF93CF9300D072
:1025000000D0CDB7DEB78A837C836B8381E089837B
:102510008A81803278F58B819C81009759F1809176
:10252000A100882339F581E08093A1008B819C81F3
:102530009093A00080939F00A6E2B0E0E6E2F0E076
:10254000808188608C93A7E2B0E0E7E2F0E08081D0
:10255000807E8C93A7E2B0E0E7E2F0E090818A8190
:10256000892B8C93A6E2B0E0E6E2F0E08081806403
:102570008C9301C0198289810F900F900F900F905A
:10258000CF91DF910895DF93CF9300D00F92CDB715
:10259000DEB79B838A8381E089838A819B81009750
:1025A00049F0E4E2F0E080819181EA81FB8191834E
:1025B000808301C0198289810F900F900F90CF9175
:1025C000DF9108951F920F920FB60F9211242F934F
:1025D0003F934F935F936F937F938F939F93AF93AB
:1025E000BF93EF93FF93DF93CF93CDB7DEB7809187
:1025F0009F009091A000009799F0A6E2B0E0E6E27B
:10260000F0E08081877F8C9320919F003091A00023
:10261000E4E2F0E080819181F90109951092A10036
:10262000CF91DF91FF91EF91BF91AF919F918F91EA
:102630007F916F915F914F913F912F910F900FBEBE
:102640000F901F901895DF93CF93CDB7DEB72797E4
:102650000FB6F894DEBF0FBECDBF8D837F836E8330
:102660000E94C0111C821B821A8219829E012D5F5A
:102670003F4F8D81B9010E94FF118B819C81CC015C
:10268000A0E0B0E028E833E140E050E0BC01CD013B
:102690000E94FA22DC01CB01072E7AE0B695A795BD
:1026A000979587957A95D1F7702D9A83898389813B
:1026B0009A812AE030E0B9010E941923CB01EE8112
:1026C000FF81808327960FB6F894DEBF0FBECDBF83
:1026D000CF91DF9108950F931F93DF93CF93CDB7E1
:1026E000DEB7CA57D0400FB6F894DEBF0FBECDBFDD
:1026F000FE01E858FF4F91838083FE01E658FF4FAB
:102700006083FE01E858FF4F8081918121E0893686
:10271000920708F0B5C5FE01E958FF4F81E08083BC
:10272000FE01E858FF4F80819181CC01A0E0B0E02C
:10273000072E7BE0880F991FAA1FBB1F7A95D1F740
:10274000702D8E010F581F4F28E631E040E050E019
:10275000BC01CD010E942D23DA01C901F80180835B
:102760009183A283B3839E012F583F4FFE01EF5800
:10277000FF4F80819181A281B381B695A7959795EE
:102780008795B695A79597958795F901808391834D
:10279000A283B383FE01E658FF4F8081813009F0A8
:1027A00015C3FE01EB58FF4F11821082F9C282E07F
:1027B00063E041E00E94670D82E064E040E00E9437
:1027C000670D82E065E040E00E94670D82E066E010
:1027D00040E00E94670DFE01E359FF4F80E090E06A
:1027E000A0EAB0E480839183A283B3838E0107596A
:1027F0001F4FFE01E359FF4F6081718182819381F8
:1028000020E030E04AEF54E40E941F02DC01CB01DB
:10281000F80180839183A283B383FE01E759FF4FC0
:10282000608171818281938120E030E040E85FE344
:102830000E947903882344F4FE01E959FF4F81E0A7
:1028400090E09183808364C0FE01E759FF4F60816F
:1028500071818281938120E03FEF4FE757E40E942E
:10286000190318160CF043C0FE01E359FF4F6081B5
:1028700071818281938120E030E040E251E40E9446
:102880001F02DC01CB018E0109591F4FBC01CD0194
:102890000E944900DC01CB01F801918380831FC0B5
:1028A000FE01EB59FF4F88EC90E091838083FE019D
:1028B000EB59FF4F808191810197F1F7FE01EB59B0
:1028C000FF4F91838083DE01A959BF4FFE01E95973
:1028D000FF4F80819181019711969C938E93FE0109
:1028E000E959FF4F808191810097D1F627C08E0171
:1028F00009591F4FFE01E759FF4F608171818281A5
:1029000093810E944900DC01CB01F801918380830F
:10291000DE01AD59BF4FFE01E959FF4F8081918122
:102920008D939C93FE01ED59FF4F8081918101971A
:10293000F1F7FE01ED59FF4F9183808382E063E060
:1029400040E00E94670D82E064E041E00E94670D74
:1029500082E065E040E00E94670D82E066E040E0D2
:102960000E94670DFE01E15AFF4F80E090E0A0EA6F
:10297000B0E480839183A283B3838E01055A1F4FF5
:10298000FE01E15AFF4F608171818281938120E0D5
:1029900030E04AEF54E40E941F02DC01CB01F80151
:1029A00080839183A283B383FE01E55AFF4F608148
:1029B00071818281938120E030E040E85FE30E94F2
:1029C0007903882344F4FE01E75AFF4F81E090E049
:1029D0009183808364C0FE01E55AFF4F608171815D
:1029E0008281938120E03FEF4FE757E40E94190373
:1029F00018160CF043C0FE01E15AFF4F608171814F
:102A00008281938120E030E040E251E40E941F0285
:102A1000DC01CB018E01075A1F4FBC01CD010E9482
:102A20004900DC01CB01F801918380831FC0FE01C6
:102A3000E95AFF4F88EC90E091838083FE01E95AC8
:102A4000FF4F808191810197F1F7FE01E95AFF4F15
:102A500091838083DE01A75ABF4FFE01E75AFF4FE3
:102A600080819181019711969C938E93FE01E75A84
:102A7000FF4F808191810097D1F627C08E01075AC0
:102A80001F4FFE01E55AFF4F608171818281938162
:102A90000E944900DC01CB01F80191838083DE01B3
:102AA000AB5ABF4FFE01E75AFF4F808191818D9352
:102AB0009C93FE01EB5AFF4F808191810197F1F7C2
:102AC000FE01EB5AFF4F9183808382E063E040E098
:102AD0000E94670D82E064E040E00E94670D82E0A2
:102AE00065E041E00E94670D82E066E040E00E9400
:102AF000670DFE01EF5AFF4F80E090E0A0EAB0E4DE
:102B000080839183A283B3838E01035B1F4FFE01F9
:102B1000EF5AFF4F608171818281938120E030E024
:102B20004AEF54E40E941F02DC01CB01F8018083CC
:102B30009183A283B383FE01E35BFF4F60817181C8
:102B40008281938120E030E040E85FE30E947903D6
:102B5000882344F4FE01E55BFF4F81E090E0918320
:102B6000808364C0FE01E35BFF4F608171818281DD
:102B7000938120E03FEF4FE757E40E9419031816B6
:102B80000CF043C0FE01EF5AFF4F608171818281DA
:102B9000938120E030E040E251E40E941F02DC011A
:102BA000CB018E01055B1F4FBC01CD010E94490086
:102BB000DC01CB01F801918380831FC0FE01E75B3C
:102BC000FF4F88EC90E091838083FE01E75BFF4F2D
:102BD000808191810197F1F7FE01E75BFF4F9183BF
:102BE0008083DE01A55BBF4FFE01E55BFF4F808167
:102BF0009181019711969C938E93FE01E55BFF4FA7
:102C0000808191810097D1F627C08E01055B1F4F0F
:102C1000FE01E35BFF4F60817181828193810E949D
:102C20004900DC01CB01F80191838083DE01A95BBF
:102C3000BF4FFE01E55BFF4F808191818D939C9397
:102C4000FE01E95BFF4F808191810197F1F7FE0161
:102C5000E95BFF4F9183808382E063E040E00E9464
:102C6000670D82E064E040E00E94670D82E065E06D
:102C700040E00E94670D82E066E041E00E94670D3F
:102C8000FE01ED5BFF4F80E090E0A0EAB0E48083BE
:102C90009183A283B3838E01015C1F4FFE01ED5B24
:102CA000FF4F608171818281938120E030E04AEFA3
:102CB00054E40E941F02DC01CB01F8018083918360
:102CC000A283B383FE01FF9660817181828193812B
:102CD00020E030E040E85FE30E94790388232CF491
:102CE00081E090E09EAF8DAF46C0FE01FF9660810F
:102CF00071818281938120E03FEF4FE757E40E948A
:102D00001903181664F5FE01ED5BFF4F60817181B8
:102D10008281938120E030E040E251E40E941F0272
:102D2000DC01CB01BC01CD010E944900DC01CB01DB
:102D30009EAF8DAF0FC088EC90E09CAF8BAF8BAD9A
:102D40009CAD0197F1F79CAF8BAF8DAD9EAD019718
:102D50009EAF8DAF8DAD9EAD009769F716C0FE0199
:102D6000FF9660817181828193810E944900DC011C
:102D7000CB019EAF8DAF8DAD9EAD9AAF89AF89ADC2
:102D80009AAD0197F1F79AAF89AFDE01AB58BF4F0B
:102D9000FE01EB58FF4F8081918101968D939C93AA
:102DA000FE01EB58FF4F808191819C0140E050E093
:102DB000FE01EF58FF4F80819181A281B3812817D6
:102DC00039074A075B0708F4F2CC45C2FE01E65812
:102DD000FF4F8081882309F03EC2FE01EB58FF4F70
:102DE0001182108223C282E063E040E00E94670DFE
:102DF00082E064E040E00E94670D82E065E040E030
:102E00000E94670D82E066E041E00E94670D80E06D
:102E100090E0A0EAB0E48DAB9EABAFABB8AF6DA9CC
:102E20007EA98FA998AD20E030E04AEF54E40E94DB
:102E30001F02DC01CB0189AB9AABABABBCAB69A980
:102E40007AA98BA99CA920E030E040E85FE30E94CA
:102E5000790388232CF481E090E098AB8FA73FC0E2
:102E600069A97AA98BA99CA920E03FEF4FE757E415
:102E70000E94190318164CF56DA97EA98FA998AD6B
:102E800020E030E040E251E40E941F02DC01CB016F
:102E9000BC01CD010E944900DC01CB0198AB8FA79A
:102EA0000FC088EC90E09EA78DA78DA59EA50197E9
:102EB000F1F79EA78DA78FA598A9019798AB8FA72B
:102EC0008FA598A9009769F714C069A97AA98BA959
:102ED0009CA90E944900DC01CB0198AB8FA78FA56C
:102EE00098A99CA78BA78BA59CA50197F1F79CA7F8
:102EF0008BA782E063E040E00E94670D82E064E01F
:102F000040E00E94670D82E065E041E00E94670DAD
:102F100082E066E040E00E94670D80E090E0A0EA79
:102F2000B0E48FA398A7A9A7BAA76FA178A589A590
:102F30009AA520E030E04AEF54E40E941F02DC0131
:102F4000CB018BA39CA3ADA3BEA36BA17CA18DA140
:102F50009EA120E030E040E85FE30E9479038823EF
:102F60002CF481E090E09AA389A33FC06BA17CA1DF
:102F70008DA19EA120E03FEF4FE757E40E94190387
:102F800018164CF56FA178A589A59AA520E030E028
:102F900040E251E40E941F02DC01CB01BC01CD01E3
:102FA0000E944900DC01CB019AA389A30FC088ECE1
:102FB00090E098A38F8F8F8D98A10197F1F798A338
:102FC0008F8F89A19AA101979AA389A389A19AA118
:102FD000009769F714C06BA17CA18DA19EA10E94EE
:102FE0004900DC01CB019AA389A389A19AA19E8FF4
:102FF0008D8F8D8D9E8D0197F1F79E8F8D8F82E045
:1030000063E040E00E94670D82E064E041E00E94DE
:10301000670D82E065E040E00E94670D82E066E0B7
:1030200040E00E94670D80E090E0A0EAB0E4898F64
:103030009A8FAB8FBC8F698D7A8D8B8D9C8D20E0A4
:1030400030E04AEF54E40E941F02DC01CB018D8B7B
:103050009E8BAF8BB88F6D897E898F89988D20E08C
:1030600030E040E85FE30E94790388232CF481E09C
:1030700090E09C8B8B8B3FC06D897E898F89988D6A
:1030800020E03FEF4FE757E40E94190318164CF574
:10309000698D7A8D8B8D9C8D20E030E040E251E48B
:1030A0000E941F02DC01CB01BC01CD010E9449003E
:1030B000DC01CB019C8B8B8B0FC088EC90E09A8B52
:1030C000898B89899A890197F1F79A8B898B8B89EA
:1030D0009C8901979C8B8B8B8B899C89009769F7C6
:1030E00014C06D897E898F89988D0E944900DC010A
:1030F000CB019C8B8B8B8B899C89988B8F878F8541
:1031000098890197F1F7988B8F8782E063E041E01F
:103110000E94670D82E064E040E00E94670D82E05B
:1031200065E040E00E94670D82E066E040E00E94BA
:10313000670D80E090E0A0EAB0E48B879C87AD87C4
:10314000BE876B857C858D859E8520E030E04AEFCB
:1031500054E40E941F02DC01CB018F839887A9876A
:10316000BA876F81788589859A8520E030E040E8CC
:103170005FE30E94790388232CF481E090E09E8332
:103180008D833FC06F81788589859A8520E03FEFE8
:103190004FE757E40E94190318164CF56B857C85A0
:1031A0008D859E8520E030E040E251E40E941F02C0
:1031B000DC01CB01BC01CD010E944900DC01CB0147
:1031C0009E838D830FC088EC90E09C838B838B81E2
:1031D0009C810197F1F79C838B838D819E81019760
:1031E0009E838D838D819E81009769F714C06F81C6
:1031F000788589859A850E944900DC01CB019E83F0
:103200008D838D819E819A83898389819A8101979B
:10321000F1F79A838983DE01AB58BF4FFE01EB586B
:10322000FF4F8081918101968D939C93FE01EB5815
:10323000FF4F808191819C0140E050E0FE01EF58FA
:10324000FF4F80819181A281B381281739074A07F6
:103250005B0708F4C8CD82E063E040E00E94670DA0
:1032600082E064E040E00E94670D82E065E040E0BB
:103270000E94670D82E066E040E00E94670D04C096
:10328000FE01E958FF4F1082FE01E958FF4F80818F
:10329000C658DF4F0FB6F894DEBF0FBECDBFCF913B
:1032A000DF911F910F910895DF93CF93CDB7DEB7D4
:1032B00082E063E040E00E94670D82E064E040E06D
:1032C0000E94670D82E065E040E00E94670D82E0A9
:1032D00066E040E00E94670DCF91DF910895DF9393
:1032E000CF9300D00F92CDB7DEB78B838B81853B18
:1032F00010F58B81882F90E0A0E0B0E020ED37E062
:1033000040E050E0BC01CD010E94FA22DC01CB017B
:1033100024EB30E040E050E0BC01CD010E942D23C1
:10332000DA01C901885A9D4F9A8389838B81882F3E
:1033300090E00E9404070F900F900F90CF91DF91C3
:103340000895DF93CF9300D0CDB7DEB789836A832A
:1033500089816A8141E00E94670D0F900F90CF91A3
:10336000DF910895DF93CF9300D0CDB7DEB7898387
:103370006A8389816A8140E00E94670D0F900F90F7
:10338000CF91DF910895DF93CF9300D00F92CDB707
:10339000DEB78A836B8319828A816B819E012F5FDE
:1033A0003F4FA9010E94910E8981813029F48A81C1
:1033B0006B810E94B21904C08A816B810E94A1199D
:1033C0000F900F900F90CF91DF910895DF93CF93DF
:1033D000CDB7DEB727970FB6F894DEBF0FBECDBFCF
:1033E0008D837F836E830E94C0111C821B821A8290
:1033F00019829E012D5F3F4F8D81B9010E94FF11FF
:103400008B819C81CC01A0E0B0E028E833E140E072
:1034100050E0BC01CD010E94FA22DC01CB01072E55
:103420007AE0B695A795979587957A95D1F7702DFF
:103430009A8389838981EE81FF81808327960FB6E5
:10344000F894DEBF0FBECDBFCF91DF910895DF931B
:10345000CF93CDB7DEB7E8970FB6F894DEBF0FBEB7
:10346000CDBF80E090E0A8E4B2E48DAB9EABAFAB03
:10347000B8AF6DA97EA98FA998AD20E030E04AEFE2
:1034800054E40E941F02DC01CB0189AB9AABABABC9
:10349000BCAB69A97AA98BA99CA920E030E040E8DF
:1034A0005FE30E94790388232CF481E090E098ABDD
:1034B0008FA73FC069A97AA98BA99CA920E03FEFFB
:1034C0004FE757E40E94190318164CF56DA97EA921
:1034D0008FA998AD20E030E040E251E40E941F0245
:1034E000DC01CB01BC01CD010E944900DC01CB0114
:1034F00098AB8FA70FC088EC90E09EA78DA78DA5F5
:103500009EA50197F1F79EA78DA78FA598A9019772
:1035100098AB8FA78FA598A9009769F714C069A9E0
:103520007AA98BA99CA90E944900DC01CB0198AB28
:103530008FA78FA598A99CA78BA78BA59CA5019762
:10354000F1F79CA78BA782E00E94331D82E00E94C6
:10355000331D88E20E94331D80E090E0A0E8BFE3C5
:103560008FA398A7A9A7BAA76FA178A589A59AA59F
:1035700020E030E04AEF54E40E941F02DC01CB015E
:103580008BA39CA3ADA3BEA36BA17CA18DA19EA187
:1035900020E030E040E85FE30E94790388232CF4C8
:1035A00081E090E09AA389A33FC06BA17CA18DA18B
:1035B0009EA120E03FEF4FE757E40E941903181641
:1035C0004CF56FA178A589A59AA520E030E040E2EE
:1035D00051E40E941F02DC01CB01BC01CD010E941D
:1035E0004900DC01CB019AA389A30FC088EC90E0CD
:1035F00098A38F8F8F8D98A10197F1F798A38F8F44
:1036000089A19AA101979AA389A389A19AA1009758
:1036100069F714C06BA17CA18DA19EA10E944900F5
:10362000DC01CB019AA389A389A19AA19E8F8D8FDA
:103630008D8D9E8D0197F1F79E8F8D8F80E00E947A
:10364000331D8CE00E94331D80E090E0A0E8BFE3D2
:10365000898F9A8FAB8FBC8F698D7A8D8B8D9C8D66
:1036600020E030E04AEF54E40E941F02DC01CB016D
:103670008D8B9E8BAF8BB88F6D897E898F89988D4E
:1036800020E030E040E85FE30E94790388232CF4D7
:1036900081E090E09C8B8B8B3FC06D897E898F8908
:1036A000988D20E03FEF4FE757E40E94190318166A
:1036B0004CF5698D7A8D8B8D9C8D20E030E040E259
:1036C00051E40E941F02DC01CB01BC01CD010E942C
:1036D0004900DC01CB019C8B8B8B0FC088EC90E008
:1036E0009A8B898B89899A890197F1F79A8B898BB3
:1036F0008B899C8901979C8B8B8B8B899C890097EC
:1037000069F714C06D897E898F89988D0E94490060
:10371000DC01CB019C8B8B8B8B899C89988B8F8751
:103720008F8598890197F1F7988B8F8780E00E94A9
:10373000331D81E00E94331D80E090E0A0E0B0E402
:103740008B879C87AD87BE876B857C858D859E85A5
:1037500020E030E04AEF54E40E941F02DC01CB017C
:103760008F839887A987BA876F81788589859A859D
:1037700020E030E040E85FE30E94790388232CF4E6
:1037800081E090E09E838D833FC06F81788589853D
:103790009A8520E03FEF4FE757E40E94190318167F
:1037A0004CF56B857C858D859E8520E030E040E280
:1037B00051E40E941F02DC01CB01BC01CD010E943B
:1037C0004900DC01CB019E838D830FC088EC90E023
:1037D0009C838B838B819C810197F1F79C838B83E6
:1037E0008D819E8101979E838D838D819E8100971F
:1037F00069F714C06F81788589859A850E94490090
:10380000DC01CB019E838D838D819E819A83898388
:1038100089819A810197F1F79A83898380E00E94D8
:10382000331D86E00E94331DE8960FB6F894DEBF84
:103830000FBECDBFCF91DF910895DF93CF93CDB76A
:10384000DEB72E970FB6F894DEBF0FBECDBF80E077
:103850000E94331D81E00E94331D80E090E0A0E0D3
:10386000B0E48B879C87AD87BE876B857C858D8513
:103870009E8520E030E04AEF54E40E941F02DC0104
:10388000CB018F839887A987BA876F8178858985CF
:103890009A8520E030E040E85FE30E9479038823C6
:1038A0002CF481E090E09E838D833FC06F8178850A
:1038B00089859A8520E03FEF4FE757E40E9419037E
:1038C00018164CF56B857C858D859E8520E030E053
:1038D00040E251E40E941F02DC01CB01BC01CD019A
:1038E0000E944900DC01CB019E838D830FC088ECD0
:1038F00090E09C838B838B819C810197F1F79C8363
:103900008B838D819E8101979E838D838D819E8186
:10391000009769F714C06F81788589859A850E9420
:103920004900DC01CB019E838D838D819E819A832A
:10393000898389819A810197F1F79A8389832E96E9
:103940000FB6F894DEBF0FBECDBFCF91DF910895C3
:10395000DF93CF93CDB7DEB72E970FB6F894DEBFC7
:103960000FBECDBF80E00E94331D8CE00E94331D4E
:1039700080E090E0A0E0B0E48B879C87AD87BE87B5
:103980006B857C858D859E8520E030E04AEF54E490
:103990000E941F02DC01CB018F839887A987BA8719
:1039A0006F81788589859A8520E030E040E85FE383
:1039B0000E94790388232CF481E090E09E838D831C
:1039C0003FC06F81788589859A8520E03FEF4FE77A
:1039D00057E40E94190318164CF56B857C858D857C
:1039E0009E8520E030E040E251E40E941F02DC01AD
:1039F000CB01BC01CD010E944900DC01CB019E83BB
:103A00008D830FC088EC90E09C838B838B819C819D
:103A10000197F1F79C838B838D819E8101979E8313
:103A20008D838D819E81009769F714C06F817885A1
:103A300089859A850E944900DC01CB019E838D8394
:103A40008D819E819A83898389819A810197F1F77B
:103A50009A8389832E960FB6F894DEBF0FBECDBF32
:103A6000CF91DF910895DF93CF93CDB7DEB72F9736
:103A70000FB6F894DEBF0FBECDBF8F8781E060E048
:103A800040E00E94670D81E061E040E00E94670D28
:103A900081E064E04F850E94861081E062E041E0B1
:103AA0000E94670D80E090E0A0E0B0E48B879C87E7
:103AB000AD87BE876B857C858D859E8520E030E057
:103AC0004AEF54E40E941F02DC01CB018F839887E8
:103AD000A987BA876F81788589859A8520E030E04B
:103AE00040E85FE30E94790388232CF481E090E0B2
:103AF0009E838D833FC06F81788589859A8520E07C
:103B00003FEF4FE757E40E94190318164CF56B85F9
:103B10007C858D859E8520E030E040E251E40E9466
:103B20001F02DC01CB01BC01CD010E944900DC0178
:103B3000CB019E838D830FC088EC90E09C838B83A8
:103B40008B819C810197F1F79C838B838D819E8172
:103B500001979E838D838D819E81009769F714C0A4
:103B60006F81788589859A850E944900DC01CB01A7
:103B70009E838D838D819E819A83898389819A8199
:103B80000197F1F79A83898381E062E040E00E9427
:103B9000670D2F960FB6F894DEBF0FBECDBFCF9145
:103BA000DF910895DF93CF93CDB7DEB72F970FB690
:103BB000F894DEBF0FBECDBF8F8781E060E041E0AB
:103BC0000E94670D81E061E040E00E94670D81E0A6
:103BD00064E04F850E94861081E062E041E00E942F
:103BE000670D80E090E0A0E0B0E48B879C87AD8714
:103BF000BE876B857C858D859E8520E030E04AEF11
:103C000054E40E941F02DC01CB018F839887A987AF
:103C1000BA876F81788589859A8520E030E040E811
:103C20005FE30E94790388232CF481E090E09E8377
:103C30008D833FC06F81788589859A8520E03FEF2D
:103C40004FE757E40E94190318164CF56B857C85E5
:103C50008D859E8520E030E040E251E40E941F0205
:103C6000DC01CB01BC01CD010E944900DC01CB018C
:103C70009E838D830FC088EC90E09C838B838B8127
:103C80009C810197F1F79C838B838D819E810197A5
:103C90009E838D838D819E81009769F714C06F810B
:103CA000788589859A850E944900DC01CB019E8335
:103CB0008D838D819E819A83898389819A810197E1
:103CC000F1F79A83898381E062E040E00E94670D0A
:103CD0002F960FB6F894DEBF0FBECDBFCF91DF9108
:103CE0000895DF93CF930F92CDB7DEB78983898193
:103CF00082958F700E94D21D89810E94D21D0F90E3
:103D0000CF91DF910895DF93CF9300D000D0CDB74E
:103D1000DEB79C838B838B819C81009721F11A8273
:103D2000198216C08A818F5F8A830EC08981282FED
:103D300030E08B819C81FC01E20FF31F80810E94A7
:103D4000711E89818F5F898399818A81981770F3A9
:103D50008A81282F30E08B819C81FC01E20FF31FC8
:103D600080818823F9F60F900F900F900F90CF91DC
:103D7000DF910895DF93CF9300D000D00F92CDB79D
:103D8000DEB78A836B8381E089838A818230D0F5B4
:103D90008B818832B8F58A81282F30E03D832C83CF
:103DA0008C819D81009731F02C813D81213031053E
:103DB000A9F029C08B81882F90E080589F4F95955E
:103DC00087959595879595958795959587950E9463
:103DD000331D8B8180580E94331D15C08B81882F25
:103DE00090E080549F4F95958795959587959595EB
:103DF0008795959587950E94331D8B8180540E94ED
:103E0000331D01C0198289810F900F900F900F9080
:103E10000F90CF91DF910895DF93CF93CDB7DEB7A9
:103E200066970FB6F894DEBF0FBECDBF6B8B7C8B51
:103E30008D8B9E8B81E088878B899C89AD89BE891B
:103E40008C839D83AE83BF831B828AE0898342C0BB
:103E50008C819D81AE81BF812AE030E040E050E05E
:103E6000BC01CD010E942D23DC01CB0188878C8110
:103E70009D81AE81BF812AE030E040E050E0BC018E
:103E8000CD010E942D23DA01C9018C839D83AE836D
:103E9000BF838885882359F48C819D81AE81BF8141
:103EA0000097A105B10519F48B818823B9F48B81A2
:103EB0008F5F8B838981882F90E09C012150304057
:103EC000CE010996FC01E20FF31F8885808389816A
:103ED000815089838981882309F0BACF8AE09B8148
:103EE000891B8A830FC08A81282F30E0CE01099672
:103EF000FC01E20FF31F8081805D0E94711E8A81A8
:103F00008F5F8A838A818A3070F366960FB6F89441
:103F1000DEBF0FBECDBFCF91DF910895DF93CF936A
:103F2000CDB7DEB728970FB6F894DEBF0FBECDBF72
:103F30008A836B834C833E832D838A81282F30E0D4
:103F400038872F838F8198858330910509F43EC08F
:103F50002F813885243031057CF48F81988581301C
:103F6000910531F12F8138852230310544F58F815B
:103F700098850097B1F04CC02F81388525303105E8
:103F800099F18F819885853091053CF12F81388595
:103F90002630310581F18F8198858730910591F127
:103FA00037C084E00E94331D80E40E94331D30C07E
:103FB00084E00E94331D88E40E94331D29C085E0FF
:103FC0000E94331D80E50E94331D22C085E00E94BF
:103FD000331D88E50E94331D1BC086E00E94331DFF
:103FE00080E60E94331D14C086E00E94331D88E6DF
:103FF0000E94331D0DC087E00E94331D80E70E94A0
:10400000331D06C087E00E94331D88E70E94331DE0
:1040100019820EC08981282F30E08D819E81FC019C
:10402000E20FF31F80810E94711E89818F5F898357
:104030008981883078F38B816C810E94BA1E8A81D5
:104040000E94711E28960FB6F894DEBF0FBECDBF3A
:10405000CF91DF910895DF93CF93CDB7DEB781E0A5
:104060000E94331D8CE10E94331DCF91DF91089592
:10407000DF93CF93CDB7DEB781E00E94331D88E197
:104080000E94331DCF91DF910895DF93CF93CDB779
:10409000DEB7A3970FB6F894DEBF0FBECDBF9BA3CC
:1040A0008AA381E088A31D8E8AA19BA1009709F4B1
:1040B00053C1EAA1FBA18FEF80831F8E48C18F8D72
:1040C000882F90E0FC01E858FF4F908181E0692F34
:1040D00040E00E94670D1E8E24C18E8D882F90E0D7
:1040E000FC01E458FF4F90819E012F5D3F4F81E01E
:1040F000692FA9010E94910E89A1882309F00EC1A0
:1041000080E090E0A0EAB1E4898F9A8FAB8FBC8FFA
:10411000698D7A8D8B8D9C8D20E030E04AEF54E4E0
:104120000E941F02DC01CB018D8B9E8BAF8BB88F61
:104130006D897E898F89988D20E030E040E85FE3CB
:104140000E94790388232CF481E090E09C8B8B8B78
:104150003FC06D897E898F89988D20E03FEF4FE7C2
:1041600057E40E94190318164CF5698D7A8D8B8DD2
:104170009C8D20E030E040E251E40E941F02DC010F
:10418000CB01BC01CD010E944900DC01CB019C8B1D
:104190008B8B0FC088EC90E09A8B898B89899A89E8
:1041A0000197F1F79A8B898B8B899C8901979C8B5E
:1041B0008B8B8B899C89009769F724C06D897E89D8
:1041C0008F89988D0E944900DC01CB019C8B8B8BE1
:1041D0008B899C89988B8F878F8598890197F1F7B8
:1041E000988B8F870FC08E8D882F90E0FC01E4584C
:1041F000FF4F90819E012F5D3F4F81E0692FA90104
:104200000E94910E89A1882371F380E090E0A0E2E2
:10421000B1E48B879C87AD87BE876B857C858D8558
:104220009E8520E030E04AEF54E40E941F02DC014A
:10423000CB018F839887A987BA876F817885898515
:104240009A8520E030E040E85FE30E94790388230C
:104250002CF481E090E09E838D833FC06F81788550
:1042600089859A8520E03FEF4FE757E40E941903C4
:1042700018164CF56B857C858D859E8520E030E099
:1042800040E251E40E941F02DC01CB01BC01CD01E0
:104290000E944900DC01CB019E838D830FC088EC16
:1042A00090E09C838B838B819C810197F1F79C83A9
:1042B0008B838D819E8101979E838D838D819E81CD
:1042C000009769F714C06F81788589859A850E9467
:1042D0004900DC01CB019E838D838D819E819A8371
:1042E000898389819A810197F1F79A8389838F8DD8
:1042F000482F50E08E8D282F30E0CA01880F991F7B
:10430000880F991F820F931FFC01E859FF4F80818E
:10431000EAA1FBA1808381E08D8F07C08E8D8F5F26
:104320008E8F8E8D843008F4D8CE8F8D882F90E0BC
:10433000FC01E858FF4F908181E0692F41E00E9425
:10434000670D8D8D813049F08F8D8F5F8F8F8F8DB1
:10435000843008F4B4CE01C018A288A1A3960FB689
:10436000F894DEBF0FBECDBFCF91DF910895DF93EC
:10437000CF930F92CDB7DEB789838981882359F413
:1043800080E061E040E00E94670D80E060E041E095
:104390000E94670D0DC08981813051F480E060E09A
:1043A00040E00E94670D80E061E041E00E94670DFF
:1043B0000F90CF91DF910895DF93CF93CDB7DEB704
:1043C00080E060E040E00E94670D80E061E040E056
:1043D0000E94670DCF91DF910895DF93CF93CDB702
:1043E000DEB76F970FB6F894DEBF0FBECDBF0E9449
:1043F0001D0C0E94C0110E94271A80E061E00E94FB
:10440000280A9E01225E3F4F80E0B9010E94FF1101
:1044100081E60E94711E80E090E0AAE7B4E4898FF3
:104420009A8FAB8FBC8F698D7A8D8B8D9C8D20E0A0
:1044300030E04AEF54E40E941F02DC01CB018D8B77
:104440009E8BAF8BB88F6D897E898F89988D20E088
:1044500030E040E85FE30E94790388232CF481E098
:1044600090E09C8B8B8B3FC06D897E898F89988D66
:1044700020E03FEF4FE757E40E94190318164CF570
:10448000698D7A8D8B8D9C8D20E030E040E251E487
:104490000E941F02DC01CB01BC01CD010E9449003A
:1044A000DC01CB019C8B8B8B0FC088EC90E09A8B4E
:1044B000898B89899A890197F1F79A8B898B8B89E6
:1044C0009C8901979C8B8B8B8B899C89009769F7C2
:1044D00014C06D897E898F89988D0E944900DC0106
:1044E000CB019C8B8B8B8B899C89988B8F878F853D
:1044F00098890197F1F7988B8F870E941D1C80E0A7
:1045000090E0AAE7B4E48B879C87AD87BE876B8574
:104510007C858D859E8520E030E04AEF54E40E9442
:104520001F02DC01CB018F839887A987BA876F812F
:10453000788589859A8520E030E040E85FE30E9435
:10454000790388232CF481E090E09E838D833FC023
:104550006F81788589859A8520E03FEF4FE757E4A2
:104560000E94190318164CF56B857C858D859E85F8
:1045700020E030E040E251E40E941F02DC01CB0168
:10458000BC01CD010E944900DC01CB019E838D83DB
:104590000FC088EC90E09C838B838B819C8101977A
:1045A000F1F79C838B838D819E8101979E838D8300
:1045B0008D819E81009769F714C06F817885898508
:1045C0009A850E944900DC01CB019E838D838D81F9
:1045D0009E819A83898389819A810197F1F79A83D1
:1045E000898380E066E00E94C319CE014D960E9447
:1045F000452007CF629FD001739FF001829FE00D9D
:10460000F11D649FE00DF11D929FF00D839FF00D51
:10461000749FF00D659FF00D9927729FB00DE11DFD
:10462000F91F639FB00DE11DF91FBD01CF011124DA
:104630000895AA1BBB1B51E107C0AA1FBB1FA617E9
:10464000B70710F0A61BB70B881F991F5A95A9F73B
:1046500080959095BC01CD010895A1E21A2EAA1B68
:10466000BB1BFD010DC0AA1FBB1FEE1FFF1FA21722
:10467000B307E407F50720F0A21BB30BE40BF50B1F
:10468000661F771F881F991F1A9469F760957095A8
:10469000809590959B01AC01BD01CF0108952F92AB
:1046A0003F924F925F926F927F928F929F92AF92C2
:1046B000BF92CF92DF92EF92FF920F931F93CF930F
:1046C000DF93CDB7DEB7CA1BDB0B0FB6F894DEBFA6
:1046D0000FBECDBF09942A88398848885F846E84CC
:1046E0007D848C849B84AA84B984C884DF80EE8016
:1046F000FD800C811B81AA81B981CE0FD11D0FB61F
:10470000F894DEBF0FBECDBFED010895F894FFCF42
:1047100000000000000000003132332B3435362D0C
:104720003738392A303D2F250001020304050607DA
:00000001FF
